:020000040800F2
:10000000002800201D0E00086D0E00081D020008CB
:100010002902000835020008410200080000000023
:100020000000000000000000000000009102000835
:100030006D0E000800000000B50700086902000806
:100040006D0E00086D0E00086D0E00086D0E0008A4
:100050006D0E00086D0E0008710E0008950E000868
:10006000B90E0008DD0E0008010F00086D0E000833
:100070006D0E00086D0E00086D0E00086D0E000874
:100080006D0E00086D0E00086D0E00086D0E000864
:100090006D0E00086D0E00086D0E0008250F00089B
:1000A0006D0E00086D0E00086D0E00086D0E000844
:1000B0006D0E00086D0E00086D0E00086D0E000834
:1000C0006D0E00086D0E00086D0E000891100008FE
:1000D000AD100008C9100008DD100008F11000087C
:1000E000CD0F00086D0E0008000000006D0E000826
:1000F0006D0E00086D0E00086D0E00086D0E0008F4
:100100006D0E00086D0E00086D0E00086D0E0008E3
:100110006D0E00086D0E00086D0E00086D0E0008D3
:100120006D0E00086D0E00086D0E00086D0E0008C3
:1001300010B5054C237833B9044B13B10448AFF321
:1001400000800123237010BD040000200000000087
:100150004C11000808B5034B1BB103490348AFF32A
:10016000008008BD00000000080000204C110008BD
:1001700010F8012B11F8013B012A28BF9A42F7D051
:10018000D01A704780B483B000AF03463960FB805B
:10019000B7F90630002B0ADB3B68DAB20C49B7F935
:1001A00006305201D2B20B4483F800230AE03B68C8
:1001B000DAB20849FB8803F00F03043B5201D2B2C4
:1001C0000B441A7600BF0C37BD4680BC704700BF99
:1001D00000E100E000ED00E080B582B000AF7860A3
:1001E0007B68013BB3F1807F01D301230FE00A4A12
:1001F0007B68013B536007214FF0FF30FFF7C2FFE0
:10020000054B00229A60044B07221A60002318460F
:100210000837BD4680BD00BF10E000E080B400AFED
:1002200000BFBD4680BC704780B400AF00BFBD4674
:1002300080BC704780B400AF00BFBD4680BC704733
:1002400080B400AF00BFBD4680BC704780B400AF33
:10025000044B5B68034A43F08053536000BFBD46C4
:1002600080BC704700ED00E080B500AF074B1B7805
:1002700083F00103DAB2054B1A7000F015FC00F0B0
:1002800051FAFFF7E3FF00BF80BD00BF3C00002034
:100290001EF0040F0CBFEFF30880EFF3098000F0AD
:1002A0006BBB00BF80B500AF0F216FF00100FFF7FF
:1002B00069FF00BF80BD80B500AF4FF4FA50FFF773
:1002C0008BFF00BF80BD80B485B000AFF860B9601F
:1002D0007A60BB68002B01D1032311E0FB68BA6888
:1002E000DA60FB68DA68FB685A60FB68DA68FB680A
:1002F0009A60FB687A681A61FB6800221A60002322
:1003000018461437BD4680BC704780B483B000AF38
:10031000786039607B68DB68002B03D07B681B69E1
:10032000002B01D103232DE07B685A687B689B6812
:100330009A4207D17B681A687B681B699A4201D18F
:1003400001231FE07B689B683A681A607B681B6822
:100350005A1C7B681A607B689B687A68D268114671
:100360007A68126992000A44043A934204D17B6885
:10037000DA687B689A6004E07B689B681A1D7B687A
:100380009A60002318460C37BD4680BC704780B485
:1003900083B000AF786039607B68DB68002B03D0E6
:1003A0007B681B69002B01D1032328E07B685A6816
:1003B0007B689B689A4201D1022320E07B685B68DE
:1003C0001A683B681A607B681B685A1E7B681A6053
:1003D0007B685B687A68D26811467A681269920015
:1003E0000A44043A934204D17B68DA687B685A6015
:1003F00004E07B685B681A1D7B685A60002318461E
:100400000C37BD4680BC704780B400AF044B1B78EE
:1004100083F00103DAB2024B1A7020BFF6E700BF87
:100420000002002080B483B000AF0023FB710C4AAF
:100430000C4BC3F890210B4BD3F89031A3F54063DC
:10044000084AC2F89431074BD3F89431083B054A67
:10045000C2F89831FB7918460C37BD4680BC70470E
:10046000002800204000002080B582B000AF0023AB
:10047000FB71174B002283F8A821FFF7D3FF6422FA
:1004800014491548FFF71FFF0346002B02D0FB79E4
:100490000133FB71114A124B03CB106051601B7882
:1004A0001372104BFF221A710E4B0F4A9A600D4BBC
:1004B0004FF496721A600B4800F05AF803461A4639
:1004C000FB791344FB71FB7918460837BD4680BDA4
:1004D0004000002044020020EC0100201D0200200A
:1004E00064110008040200200904000880B485B0EB
:1004F00000AF78600023FB727B68DB681A467B687C
:100500005A617B685B691A1F7B685A617B685B690B
:100510004FF080721A607B685B691A1F7B685A61B2
:100520007B689A687B685B691A607B685B691A1FE5
:100530007B685A617B685B696FF002021A60002376
:10054000FB600BE07B685B691A1F7B685A617B6804
:100550005B6900221A60FB680133FB60FB680C2BAF
:10056000F0DDFB7A18461437BD4680BC70470000AA
:1005700080B584B000AF78600023FB73164BD3F8CE
:1005800098217B68DA60144BD3F898217B681B684C
:10059000D21A7B681A617B681B69083B0E4AC2F855
:1005A00098317868FFF7A2FF0B4B93F89C311946FE
:1005B000094A7B6842F82130074B93F89C3101339C
:1005C000DAB2054B83F89C217B6800221A76FB7B0C
:1005D00018461037BD4680BD4000002080B485B06D
:1005E00000AF0023FB6032E00023BB6023E01E4A23
:1005F000BB6852F823301A79BB6801331A4951F8A5
:1006000023301B799A4213D9174ABB6852F823301A
:100610007B60BB680133144A52F823201249BB683F
:1006200041F82320BB6801330F497A6841F8232041
:10063000BB680133BB600C4B93F89C315A1EFB68BE
:10064000D31ABA689A42D2DBFB680133FB60064BCF
:1006500093F89C31013BFA689A42C5DB00BF14371E
:10066000BD4680BC704700BF4000002080B584B00C
:1006700000AFFFF7B3FF00233B6000BF3B461946C6
:100680002648FFF784FE0346022BF7D10023FB60C8
:1006900038E0234AFB6852F82330BB60FB68013323
:1006A0001F4A52F823307B60BB681B7E002B26D08C
:1006B0007B681B7E002B07D1B9681848FFF725FE21
:1006C000BB6801221A7624E0BB681A797B681B7923
:1006D0009A4207D2B9681148FFF717FEBB6801229A
:1006E0001A7616E0BB681A797B681B799A4206D1A4
:1006F000B9680A48FFF709FEBB6801221A76FB6851
:100700000133FB60064B93F89C311A46FB68934219
:10071000BFDB00BF1037BD4680BD00BFEC0100202D
:100720004000002080B500AF1F4B1B68002B18D184
:100730001E4BD3F8A0311B7E002B12D01B4BD3F8DD
:10074000A03103221A76194BD3F8A0311946164866
:10075000FFF7DBFD154BD3F8A031144AC2F8A431E2
:100760001FE013491048FFF712FE104BD3F8A031D9
:100770001A790E4BD3F8A4311B799A4211D10B4B45
:10078000D3F8A0311B7E002B0BD0084BD3F8A0313F
:1007900019460548FFF7B9FD044BD3F8A0310122F3
:1007A0001A7600BF80BD00BFEC0100204000002091
:1007B000E40100206F4BD3F8A031EFF3098002462B
:1007C0005A616C4BD3F8A0315A69043A5A61694BAB
:1007D000D3F8A0315B6922461A60664BD3F8A0318A
:1007E0005A69043A5A61634BD3F8A0315B692A46CF
:1007F0001A60604BD3F8A0315A69043A5A615D4BD4
:10080000D3F8A0315B6932461A605A4BD3F8A03155
:100810005A69043A5A61574BD3F8A0315B693A469A
:100820001A60544BD3F8A0315A69043A5A61514BBB
:10083000D3F8A0315B6942461A604E4BD3F8A03121
:100840005A69043A5A614B4BD3F8A0315B694A4666
:100850001A60484BD3F8A0315A69043A5A61454BA3
:10086000D3F8A0315B6952461A60424BD3F8A031ED
:100870005A69043A5A613F4BD3F8A0315B695A4632
:100880001A603C4BD3F8A431002B09D0394BD3F874
:10089000A431384AC2F8A031364B0022C3F8A42153
:1008A000344BD3F8A0315B691B689B46314BD3F8BE
:1008B000A0315A6904325A612E4BD3F8A0315B69DA
:1008C0001B689A462B4BD3F8A0315A6904325A61FF
:1008D000284BD3F8A0315B691B689946254BD3F8A8
:1008E000A0315A6904325A61224BD3F8A0315B69B6
:1008F0001B6898461F4BD3F8A0315A6904325A61DD
:100900001C4BD3F8A0315B691B681F46194BD3F809
:10091000A0315A6904325A61164BD3F8A0315B6991
:100920001B681E46134BD3F8A0315A6904325A6132
:10093000104BD3F8A0315B691B681D460D4BD3F8F3
:10094000A0315A6904325A610A4BD3F8A0315B696D
:100950001B681C46074BD3F8A0315A6904325A6110
:10096000044BD3F8A0315B69184680F309887047BF
:1009700000BF18464000002080B584B000AF78600A
:100980007B6818331B68023B1B78FB73FB7B002BD7
:100990001FDB012B02DD022B17D01AE0FFF766FEEA
:1009A0000E4B93F8A831012B12D10C4BD3F8A03188
:1009B00019330B491846FFF7DBFB0346002B07D022
:1009C000FFF7B0FEFFF742FC02E0FFF74FFE00E04A
:1009D00000BF00BF1037BD4680BD00BF40000020F3
:1009E0006411000880B483B000AF0346FB71FB794B
:1009F000012B05D0022B05D0002B05D100DF03E031
:100A000001DF01E002DF00BF00BF18460C37BD4622
:100A100080BC704780B582B000AF78607B680222EE
:100A20001A760020FFF7DEFF00BF0837BD4680BD05
:100A300080B582B000AF78607B6800221A76012012
:100A4000FFF7D0FF00BF0837BD4680BD80B500AFBF
:100A5000134B012283F8A821114B124AC3F8A0219D
:100A60001048FFF7D7FFFFF726FC0D4BD3F8A03156
:100A70005B69184680F30988EFF314804FF0020198
:100A800040EA010080F31488EFF3148343F001037C
:100A900083F31488034B9B68984700BF80BD00BF59
:100AA000400000200402002080B582B000AF002387
:100AB0007B602FE01D4A7B6852F823301B7E002BA1
:100AC00025D11A4A7B6852F8233093F83830002B2E
:100AD0001DD1164A7B6852F82330DA6B013ADA638B
:100AE000124A7B6852F82330DB6B002B0FD10F4A80
:100AF0007B6852F82330012283F838200B4A7B6848
:100B000052F8233002221A760220FFF76BFF7B682F
:100B100001337B60054B93F89C311A467B68934206
:100B2000C8DB00BF0837BD4680BD00BF40000020C5
:100B300080B582B000AF786039607B689B68002B1D
:100B400003D17B683A689A600CE07B68DB68002B15
:100B500006D17B683A68DA603868FFF769FF01E020
:100B6000032300E0002318460837BD4680BD80B54A
:100B700082B000AF78607B689B68002B0BD07B68ED
:100B8000DA687B689A607B680022DA607B689B6821
:100B90001846FFF73FFF002318460837BD4680BDC3
:100BA00080B500AF114B1B7883F00103DAB20F4B15
:100BB0001A700F4B1B6801330D4A13600C4B1B68F6
:100BC000642B07D10B490C48FFF7B2FF0B48FFF726
:100BD00021FFE7E7064B1B68C82BE3D1044B00223B
:100BE0001A600548FFF7C3FFDCE700BF660400207A
:100BF00020000020A804002014040020D4030020BA
:100C000080B500AF0F4B1B7883F00103DAB20D4BB8
:100C10001A700D4B1B6801330B4A13600A4B1B689B
:100C2000642B03D10948FFF7F5FEEBE7064B1B6881
:100C3000C82BE7D1044B00221A600548FFF7F8FEE5
:100C4000E0E700BF650400202400002068040020C5
:100C5000D403002080B500AF0F4B1B7883F0010355
:100C6000DAB20D4B1A700D4B1B6801330B4A13603F
:100C70000A4B1B68642B03D10948FFF7CBFEEBE757
:100C8000064B1B68C82BE7D1044B00221A600548AD
:100C9000FFF7CEFEE0E700BF64040020280000203C
:100CA000240400206804002080B500AF104B1B789E
:100CB00083F00103DAB20E4B1A700E4B1B6801333E
:100CC0000C4A13600B4B1B68032B03D10A490B48DA
:100CD000FFF72EFF074B1B68C82BE7D1054B0022FF
:100CE0001A600648FFF743FF0348FFF7A1FEDDE760
:100CF000E80400202C00002024040020140400201C
:100D000080B500AFFFF7CEFAFFF7AEFB314B032201
:100D10005A60304B304A1A60304B4FF480621A6090
:100D20002E4B2F4A9A602D4B04221A712B4B002216
:100D30001A762C4B2C4A1068186092889A802B4B9C
:100D40004FF480621A60294B294A9A60274B03228C
:100D50001A71264B00221A76264B274A1068186013
:100D600092889A80254B4FF480621A60234B244A64
:100D70009A60224B02221A71204B00221A76214BD4
:100D8000214A1068186092889A80204B4FF4806244
:100D90001A601E4B1E4A9A601C4B01221A711B4B93
:100DA00000221A761B4B1C4A1068186092889A80A1
:100DB0000A48FFF7DDFB0D48FFF7DAFB0F48FFF7A6
:100DC000D7FB1248FFF7D4FB0448FFF723FEFFF7D9
:100DD0003DFEFEE71404002000000020A8040020CF
:100DE000A10B0008C104002070110008D4030020EA
:100DF000010C0008ED0300207811000868040020B1
:100E0000550C0008810400208011000824040020F3
:100E1000A90C00083D040020881100080D488546F3
:100E2000AFF300800C480D490D4A002302E0D4586E
:100E3000C4500433C4188C42F9D30A4A0A4C002324
:100E400001E013600432A242FBD300F05BF9FFF72C
:100E500057FFFEE7002800200000002004000020CB
:100E6000981100080400002028050020FEE700007B
:100E700080B500AF054B5B69044A43F00103536141
:100E8000034B1B68984700BF80BD00BF00040140B2
:100E9000EC04002080B500AF054B5B69044A43F0C9
:100EA00002035361034B5B68984700BF80BD00BFDE
:100EB00000040140EC04002080B500AF054B5B69E5
:100EC000044A43F004035361034B9B68984700BFF7
:100ED00080BD00BF00040140EC04002080B500AFDD
:100EE000054B5B69044A43F008035361034BDB681D
:100EF000984700BF80BD00BF00040140EC04002003
:100F000080B500AF054B5B69044A43F010035361A1
:100F1000034B1B69984700BF80BD00BF0004014020
:100F2000EC04002080B500AF264B5B6903F0200382
:100F3000002B08D0234B5B69224A43F02003536106
:100F4000214B5B6998471F4B5B6903F04003002B03
:100F500008D01C4B5B691B4A43F0400353611A4B9A
:100F60009B699847174B5B6903F08003002B08D0FF
:100F7000144B5B69134A43F080035361124BDB69E6
:100F80009847104B5B6903F48073002B08D00D4B1E
:100F90005B690C4A43F4807353610B4B1B6A98479F
:100FA000084B5B6903F40073002B08D0054B5B69A9
:100FB000044A43F400735361034B5B6A984700BFD4
:100FC00080BD00BF00040140EC04002080B500AFEC
:100FD0002D4B5B6903F48063002B08D02A4B5B69BF
:100FE000294A43F480635361284B9B6A9847264BF8
:100FF0005B6903F40063002B08D0234B5B69224A32
:1010000043F400635361214BDB6A98471E4B5B69D5
:1010100003F48053002B08D01B4B5B691A4A43F43E
:1010200080535361194B1B6B9847174B5B6903F453
:101030000053002B08D0144B5B69134A43F4005350
:101040005361124B5B6B98470F4B5B6903F4804312
:10105000002B08D00C4B5B690B4A43F4804353616F
:101060000A4B9B6B9847084B5B6903F40043002BCA
:1010700008D0054B5B69044A43F400435361034BBA
:10108000DB6B984700BF80BD00040140EC040020EA
:1010900080B582B000AF044B1B685B693879984714
:1010A00000BF0837BD4680BD3000002080B582B04B
:1010B00000AF044B5B685B693879984700BF08371D
:1010C000BD4680BD3000002080B500AF024B1B68DC
:1010D0001B69984700BF80BD3800002080B500AF75
:1010E000024B1B681B69984700BF80BD3800002079
:1010F00080B500AF024B1B681B69984700BF80BDDD
:101100003800002070B500250C4E0D4CA41BA41017
:10111000A54209D100F01AF800250A4E0A4CA41B7A
:10112000A410A54205D170BD56F825309847013569
:10113000EEE756F8253098470135F2E790110008A0
:10114000901100089011000894110008F8B500BF34
:10115000F8BC08BC9E467047F8B500BFF8BC08BC98
:041160009E467047F0
:1011640069646C655461736B000000007461736B97
:10117400310000007461736B320000007461736BA2
:0C118400330000007461736B3400000045
:0411900055010008FD
:04119400310100081D
:041198000001020050
:0400000508000E1DC4
:00000001FF
