:020000040800F2
:1000000000280020E50E0008350F00081D0200083A
:100010002902000835020008410200080000000023
:100020000000000000000000000000009102000835
:10003000350F000800000000C90700086902000829
:10004000350F0008350F0008350F0008350F000880
:10005000350F0008350F0008390F00085D0F000844
:10006000810F0008A50F0008C90F0008350F000810
:10007000350F0008350F0008350F0008350F000850
:10008000350F0008350F0008350F0008350F000840
:10009000350F0008350F0008350F0008ED0F000878
:1000A000350F0008350F0008350F0008350F000820
:1000B000350F0008350F0008350F0008350F000810
:1000C000350F0008350F0008350F000859110008DA
:1000D0007511000891110008A5110008B911000858
:1000E00095100008350F000800000000350F0008CB
:1000F000350F0008350F0008350F0008350F0008D0
:10010000350F0008350F0008350F0008350F0008BF
:10011000350F0008350F0008350F0008350F0008AF
:10012000350F0008350F0008350F0008350F00089F
:1001300010B5054C237833B9044B13B10448AFF321
:1001400000800123237010BD00000020000000008B
:100150001412000808B5034B1BB103490348AFF361
:10016000008008BD000000000400002014120008F8
:1001700010F8012B11F8013B012A28BF9A42F7D051
:10018000D01A704780B483B000AF03463960FB805B
:10019000B7F90630002B0ADB3B68DAB20C49B7F935
:1001A00006305201D2B20B4483F800230AE03B68C8
:1001B000DAB20849FB8803F00F03043B5201D2B2C4
:1001C0000B441A7600BF0C37BD4680BC704700BF99
:1001D00000E100E000ED00E080B582B000AF7860A3
:1001E0007B68013BB3F1807F01D301230FE00A4A12
:1001F0007B68013B536007214FF0FF30FFF7C2FFE0
:10020000054B00229A60044B07221A60002318460F
:100210000837BD4680BD00BF10E000E080B400AFED
:1002200000BFBD4680BC704780B400AF00BFBD4674
:1002300080BC704780B400AF00BFBD4680BC704733
:1002400080B400AF00BFBD4680BC704780B400AF33
:10025000044B5B68034A43F08053536000BFBD46C4
:1002600080BC704700ED00E080B500AF074B1B7805
:1002700083F00103DAB2054B1A7000F033FC00F092
:100280005BFAFFF7E3FF00BF80BD00BF380000202E
:100290001EF0040F0CBFEFF30880EFF3098000F0AD
:1002A00075BB00BF80B500AF0F216FF00100FFF7F5
:1002B00069FF00BF80BD80B500AF4FF4FA50FFF773
:1002C0008BFF00BF80BD80B485B000AFF860B9601F
:1002D0007A60BB68002B01D1032311E0FB68BA6888
:1002E000DA60FB68DA68FB685A60FB68DA68FB680A
:1002F0009A60FB687A681A61FB6800221A60002322
:1003000018461437BD4680BC704780B483B000AF38
:10031000786039607B68DB68002B03D07B681B69E1
:10032000002B01D103232DE07B685A687B689B6812
:100330009A4207D17B681A687B681B699A4201D18F
:1003400001231FE07B689B683A681A607B681B6822
:100350005A1C7B681A607B689B687A68D268114671
:100360007A68126992000A44043A934204D17B6885
:10037000DA687B689A6004E07B689B681A1D7B687A
:100380009A60002318460C37BD4680BC704780B485
:1003900083B000AF786039607B68DB68002B03D0E6
:1003A0007B681B69002B01D1032328E07B685A6816
:1003B0007B689B689A4201D1022320E07B685B68DE
:1003C0001A683B681A607B681B685A1E7B681A6053
:1003D0007B685B687A68D26811467A681269920015
:1003E0000A44043A934204D17B68DA687B685A6015
:1003F00004E07B685B681A1D7B685A60002318461E
:100400000C37BD4680BC704780B400AF044B1B78EE
:1004100083F00103DAB2024B1A7020BFF6E700BF87
:100420000002002080B483B000AF0023FB710C4AAF
:100430000C4BC3F890210B4BD3F89031A3F54063DC
:10044000084AC2F89431074BD3F89431083B054A67
:10045000C2F89831FB7918460C37BD4680BC70470E
:10046000002800204000002080B582B000AF0023AB
:10047000FB71174B002283F8A821FFF7D3FF6422FA
:1004800014491548FFF71FFF0346002B02D0FB79E4
:100490000133FB71114A124B03CB106051601B7882
:1004A0001372104BFF221A710E4B0F4A9A600D4BBC
:1004B0004FF496721A600B4800F05AF803461A4639
:1004C000FB791344FB71FB7918460837BD4680BDA4
:1004D0004000002044020020EC0100201D0200200A
:1004E0002C120008040200200904000880B485B022
:1004F00000AF78600023FB727B68DB681A467B687C
:100500005A617B685B691A1F7B685A617B685B690B
:100510004FF080721A607B685B691A1F7B685A61B2
:100520007B689A687B685B691A607B685B691A1FE5
:100530007B685A617B685B696FF002021A60002376
:10054000FB600BE07B685B691A1F7B685A617B6804
:100550005B6900221A60FB680133FB60FB680C2BAF
:10056000F0DDFB7A18461437BD4680BC70470000AA
:1005700080B584B000AF78600023FB73164BD3F8CE
:1005800098217B68DA60144BD3F898217B681B684C
:10059000D21A7B681A617B681B69083B0E4AC2F855
:1005A00098317868FFF7A2FF0B4B93F89C311946FE
:1005B000094A7B6842F82130074B93F89C3101339C
:1005C000DAB2054B83F89C217B6800221A76FB7B0C
:1005D00018461037BD4680BD4000002080B485B06D
:1005E00000AF0023FB6032E00023BB6023E01E4A23
:1005F000BB6852F823301A79BB6801331A4951F8A5
:1006000023301B799A4213D9174ABB6852F823301A
:100610007B60BB680133144A52F823201249BB683F
:1006200041F82320BB6801330F497A6841F8232041
:10063000BB680133BB600C4B93F89C315A1EFB68BE
:10064000D31ABA689A42D2DBFB680133FB60064BCF
:1006500093F89C31013BFA689A42C5DB00BF14371E
:10066000BD4680BC704700BF4000002080B584B00C
:1006700000AFFFF7B3FF00233B6000BF3B461946C6
:100680002B48FFF784FE0346022BF7D10023FB60C3
:1006900042E0284AFB6852F82330BB60FB68013314
:1006A000244A52F823307B60BB681B7E002B30D07D
:1006B0007B681B7E002B11D11E4B93F89C31013BB4
:1006C0001C4A52F823307A689A4207D1B968184810
:1006D000FFF71BFEBB6801221A7624E0BB681A797B
:1006E0007B681B799A4207D2B9681148FFF70DFE63
:1006F000BB6801221A7616E0BB681A797B681B7901
:100700009A4206D1B9680A48FFF7FFFDBB6801228B
:100710001A76FB680133FB60064B93F89C311A464E
:10072000FB689342B5DB00BF1037BD4680BD00BFFC
:10073000EC0100204000002080B500AF1F4B1B687B
:10074000002B18D11E4BD3F8A0311B7E002B12D0EA
:100750001B4BD3F8A03103221A76194BD3F8A031E2
:1007600019461648FFF7D1FD154BD3F8A031144AAE
:10077000C2F8A4311FE013491048FFF708FE104BE0
:10078000D3F8A0311A790E4BD3F8A4311B799A42D1
:1007900011D10B4BD3F8A0311B7E002B0BD0084B93
:1007A000D3F8A03119460548FFF7AFFD044BD3F845
:1007B000A03101221A7600BF80BD00BFEC010020ED
:1007C00040000020E40100206F4BD3F8A031EFF38C
:1007D000098002465A616C4BD3F8A0315A69043A39
:1007E0005A61694BD3F8A0315B6922461A60664BA7
:1007F000D3F8A0315A69043A5A61634BD3F8A03157
:100800005B692A461A60604BD3F8A0315A69043AF2
:100810005A615D4BD3F8A0315B6932461A605A4B7E
:10082000D3F8A0315A69043A5A61574BD3F8A03132
:100830005B693A461A60544BD3F8A0315A69043ABE
:100840005A61514BD3F8A0315B6942461A604E4B56
:10085000D3F8A0315A69043A5A614B4BD3F8A0310E
:100860005B694A461A60484BD3F8A0315A69043A8A
:100870005A61454BD3F8A0315B6952461A60424B2E
:10088000D3F8A0315A69043A5A613F4BD3F8A031EA
:100890005B695A461A603C4BD3F8A431002B09D04F
:1008A000394BD3F8A431384AC2F8A031364B002274
:1008B000C3F8A421344BD3F8A0315B691B689B4675
:1008C000314BD3F8A0315A6904325A612E4BD3F818
:1008D000A0315B691B689A462B4BD3F8A0315A694B
:1008E00004325A61284BD3F8A0315B691B689946E2
:1008F000254BD3F8A0315A6904325A61224BD3F800
:10090000A0315B691B6898461F4BD3F8A0315A6928
:1009100004325A611C4BD3F8A0315B691B681F4637
:10092000194BD3F8A0315A6904325A61164BD3F8E7
:10093000A0315B691B681E46134BD3F8A0315A697E
:1009400004325A61104BD3F8A0315B691B681D4615
:100950000D4BD3F8A0315A6904325A610A4BD3F8CF
:10096000A0315B691B681C46074BD3F8A0315A695C
:1009700004325A61044BD3F8A0315B69184680F306
:100980000988704700BF18464000002080B584B039
:1009900000AF78607B6818331B68023B1B78FB73E1
:1009A000FB7B042B27D801A252F823F0C1090008D1
:1009B000C1090008EF090008C1090008C1090008C1
:1009C000FFF754FE0E4B93F8A831012B12D10C4BBC
:1009D000D3F8A03119330B491846FFF7C9FB03467A
:1009E000002B07D0FFF7A8FEFFF730FC02E0FFF76F
:1009F0003DFE00E000BF00BF1037BD4680BD00BF18
:100A0000400000202C12000880B483B000AF0346E1
:100A1000FB71FB79042B15D801A252F823F000BF1B
:100A2000350A0008390A00083D0A0008410A000892
:100A3000430A000800DF05E001DF03E002DF01E018
:100A400003DF04DF00BF18460C37BD4680BC70478B
:100A500080B582B000AF78607B6802221A760020F1
:100A6000FFF7D2FF00BF0837BD4680BD80B582B01A
:100A700000AF78607B6800221A760120FFF7C4FF80
:100A800000BF0837BD4680BD80B500AF134B0122C3
:100A900083F8A821114B124AC3F8A0211048FFF790
:100AA000D7FFFFF708FC0D4BD3F8A0315B69184660
:100AB00080F30988EFF314804FF0020140EA01004F
:100AC00080F31488EFF3148343F0010383F3148855
:100AD000034B9B68984700BF80BD00BF40000020CB
:100AE0000402002080B582B000AF00237B602FE0BD
:100AF0001D4A7B6852F823301B7E002B25D11A4AF1
:100B00007B6852F8233093F83830002B1DD1164AF9
:100B10007B6852F82330DA6B013ADA63124A7B6859
:100B200052F82330DB6B002B0FD10F4A7B6852F851
:100B30002330012283F838200B4A7B6852F8233097
:100B400002221A760220FFF75FFF7B6801337B6089
:100B5000054B93F89C311A467B689342C8DB00BF73
:100B60000837BD4680BD00BF4000002080B582B080
:100B700000AF786039607B681B68002B03D17B680D
:100B80003A681A601CE07B685B68002B18D17B68B0
:100B90003A685A603B6800221A767B6893F82630E0
:100BA000012B0AD17B681B681A797B6883F82720A0
:100BB0007B681B683A6812791A710320FFF724FFDB
:100BC00000BF0837BD4680BD80B582B000AF7860F9
:100BD00039607B681B68002B2AD07B681B683A68E9
:100BE0009A4225D17B6893F82630012B0AD17B6885
:100BF00093F827203B681A717B685B681A797B68D9
:100C000083F827207B685B68002B03D17B68002278
:100C10001A600DE07B685A687B681A607B68002266
:100C20005A607B681B6801221A760420FFF7ECFEED
:100C300000BF0837BD4680BD80B500AF114B1B78A3
:100C400083F00103DAB20F4B1A700F4B1B680133AC
:100C50000D4A13600C4B1B68642B07D10B490C48E1
:100C6000FFF784FF0B48FFF7F3FEE7E7064B1B682F
:100C7000C82BE3D1044B00221A6004490448FFF753
:100C8000A3FFDBE77E0400201C000020C00400203E
:100C900014040020D403002080B500AF0F4B1B7854
:100CA00083F00103DAB20D4B1A700D4B1B68013350
:100CB0000B4A13600A4B1B68642B03D10948FFF7EA
:100CC000C7FEEBE7064B1B68C82BE7D1044B00229D
:100CD0001A600548FFF7CAFEE0E700BF7D04002068
:100CE0002000002080040020D403002080B500AF45
:100CF0000F4B1B7883F00103DAB20D4B1A700D4BCA
:100D00001B6801330B4A13600A4B1B68642B03D129
:100D10000948FFF79DFEEBE7064B1B68C82BE7D1A0
:100D2000044B00221A600548FFF7A0FEE0E700BF71
:100D30007C040020240000203C04002080040020CB
:100D400080B500AF114B1B7883F00103DAB20F4B73
:100D50001A700F4B1B6801330D4A13600C4B1B6854
:100D6000032B03D10B490C48FFF700FF084B1B680E
:100D7000C82BE7D1064B00221A6006490648FFF748
:100D800023FF0448FFF772FEDCE700BF28050020C0
:100D9000280000203C0400201404002080B500AF8F
:100DA000FFF780FAFFF760FB384B394A92E80300FF
:100DB00083E80300374B012283F82620364B374A5D
:100DC00092E8030083E80300354B012283F82620D4
:100DD000344B4FF480621A60324B334A9A60314B85
:100DE00004221A712F4B00221A76304B304A1068B9
:100DF000186092889A802F4B4FF480621A602D4BB6
:100E00002D4A9A602B4B03221A712A4B00221A7624
:100E10002A4B2B4A1068186092889A80294B4FF40D
:100E200080621A60274B284A9A60264B02221A7168
:100E3000244B00221A76254B254A106818609288A8
:100E40009A80244B4FF480621A60224B224A9A60A7
:100E5000204B01221A711F4B00221A761F4B204A89
:100E60001068186092889A800E48FFF781FB11483D
:100E7000FFF77EFB1348FFF77BFB1648FFF778FB75
:100E80000848FFF7E5FDFFF7FFFDFEE71C04002023
:100E90003812000814040020080500204012000841
:100EA00000050020C0040020390C0008D9040020EF
:100EB00048120008D4030020990C0008ED0300201C
:100EC0005012000880040020ED0C00089904002056
:100ED000581200083C040020410D00085504002071
:100EE000601200080D488546AFF300800C480D499C
:100EF0000D4A002302E0D458C4500433C4188C4275
:100F0000F9D30A4A0A4C002301E013600432A242DA
:100F1000FBD300F05BF9FFF741FFFEE7002800205C
:100F200000000020000000207012000800000020D7
:100F300068050020FEE7000080B500AF054B5B6947
:100F4000044A43F001035361034B1B68984700BFF9
:100F500080BD00BF000401402C05002080B500AF1B
:100F6000054B5B69044A43F002035361034B5B6822
:100F7000984700BF80BD00BF000401402C05002041
:100F800080B500AF054B5B69044A43F0040353612D
:100F9000034B9B68984700BF80BD00BF0004014021
:100FA0002C05002080B500AF054B5B69044A43F077
:100FB00008035361034BDB68984700BF80BD00BF47
:100FC000000401402C05002080B500AF054B5B6993
:100FD000044A43F010035361034B1B69984700BF59
:100FE00080BD00BF000401402C05002080B500AF8B
:100FF000264B5B6903F02003002B08D0234B5B6971
:10100000224A43F020035361214B5B6998471F4BF1
:101010005B6903F04003002B08D01C4B5B691B4A43
:1010200043F0400353611A4B9B699847174B5B6928
:1010300003F08003002B08D0144B5B69134A43F084
:1010400080035361124BDB699847104B5B6903F4D3
:101050008073002B08D00D4B5B690C4A43F48073FE
:1010600053610B4B1B6A9847084B5B6903F4007391
:10107000002B08D0054B5B69044A43F400735361AD
:10108000034B5B6A984700BF80BD00BF000401406E
:101090002C05002080B500AF2D4B5B6903F4806305
:1010A000002B08D02A4B5B69294A43F480635361C3
:1010B000284B9B6A9847264B5B6903F40063002B1F
:1010C00008D0234B5B69224A43F400635361214BF0
:1010D000DB6A98471E4B5B6903F48053002B08D0F2
:1010E0001B4B5B691A4A43F480535361194B1B6BCA
:1010F0009847174B5B6903F40053002B08D0144B3F
:101100005B69134A43F400535361124B5B6B98477E
:101110000F4B5B6903F48043002B08D00C4B5B69D9
:101120000B4A43F4804353610A4B9B6B9847084B2F
:101130005B6903F40043002B08D0054B5B69044A4C
:1011400043F400435361034BDB6B984700BF80BD02
:10115000000401402C05002080B582B000AF044B94
:101160001B685B693879984700BF0837BD4680BD6A
:101170002C00002080B582B000AF044B5B685B6937
:101180003879984700BF0837BD4680BD2C00002045
:1011900080B500AF024B1B681B69984700BF80BD3C
:1011A0003400002080B500AF024B1B681B699847D4
:1011B00000BF80BD3400002080B500AF024B1B682B
:1011C0001B69984700BF80BD3400002070B5002522
:1011D0000C4E0D4CA41BA410A54209D100F01AF826
:1011E00000250A4E0A4CA41BA410A54205D170BDCF
:1011F00056F8253098470135EEE756F825309847E0
:101200000135F2E768120008681200086812000849
:101210006C120008F8B500BFF8BC08BC9E467047C9
:0C122000F8B500BFF8BC08BC9E46704743
:10122C0069646C655461736B000000004D55544546
:10123C00585F31004D555445585F32007461736BE3
:10124C00310000007461736B320000007461736BC9
:0C125C00330000007461736B340000006C
:041268005501000824
:04126C003101000844
:0400000508000EE5FC
:00000001FF
