:020000040800F2
:100000000028002005100008551000081D020008F7
:100010002902000835020008410200080000000023
:100020000000000000000000000000009102000835
:1000300055100008000000001108000869020008BF
:1000400055100008551000085510000855100008FC
:100050005510000855100008591000087D100008C0
:10006000A1100008C5100008E9100008551000088C
:1000700055100008551000085510000855100008CC
:1000800055100008551000085510000855100008BC
:100090005510000855100008551000080D110008F3
:1000A000551000085510000855100008551000089C
:1000B000551000085510000855100008551000088C
:1000C0005510000855100008551000087912000856
:1000D00095120008B1120008C5120008D9120008D4
:1000E000B511000855100008000000005510000868
:1000F000551000085510000855100008551000084C
:10010000551000085510000855100008551000083B
:10011000551000085510000855100008551000082B
:10012000551000085510000855100008551000081B
:1001300010B5054C237833B9044B13B10448AFF321
:1001400000800123237010BD00000020000000008B
:100150003413000808B5034B1BB103490348AFF340
:10016000008008BD000000000400002034130008D7
:1001700010F8012B11F8013B012A28BF9A42F7D051
:10018000D01A704780B483B000AF03463960FB805B
:10019000B7F90630002B0ADB3B68DAB20C49B7F935
:1001A00006305201D2B20B4483F800230AE03B68C8
:1001B000DAB20849FB8803F00F03043B5201D2B2C4
:1001C0000B441A7600BF0C37BD4680BC704700BF99
:1001D00000E100E000ED00E080B582B000AF7860A3
:1001E0007B68013BB3F1807F01D301230FE00A4A12
:1001F0007B68013B536007214FF0FF30FFF7C2FFE0
:10020000054B00229A60044B07221A60002318460F
:100210000837BD4680BD00BF10E000E080B400AFED
:1002200000BFBD4680BC704780B400AF00BFBD4674
:1002300080BC704780B400AF00BFBD4680BC704733
:1002400080B400AF00BFBD4680BC704780B400AF33
:10025000044B5B68034A43F08053536000BFBD46C4
:1002600080BC704700ED00E080B500AF074B1B7805
:1002700083F00103DAB2054B1A7000F057FC00F06E
:100280007BFAFFF7E3FF00BF80BD00BF380000200E
:100290001EF0040F0CBFEFF30880EFF3098000F0AD
:1002A00099BB00BF80B500AF0F216FF00100FFF7D1
:1002B00069FF00BF80BD80B500AF4FF4FA50FFF773
:1002C0008BFF00BF80BD80B485B000AFF860B9601F
:1002D0007A60BB68002B01D1032311E0FB68BA6888
:1002E000DA60FB68DA68FB685A60FB68DA68FB680A
:1002F0009A60FB687A681A61FB6800221A60002322
:1003000018461437BD4680BC704780B483B000AF38
:10031000786039607B68DB68002B03D07B681B69E1
:10032000002B01D103232DE07B685A687B689B6812
:100330009A4207D17B681A687B681B699A4201D18F
:1003400001231FE07B689B683A681A607B681B6822
:100350005A1C7B681A607B689B687A68D268114671
:100360007A68126992000A44043A934204D17B6885
:10037000DA687B689A6004E07B689B681A1D7B687A
:100380009A60002318460C37BD4680BC704780B485
:1003900083B000AF786039607B68DB68002B03D0E6
:1003A0007B681B69002B01D1032328E07B685A6816
:1003B0007B689B689A4201D1022320E07B685B68DE
:1003C0001A683B681A607B681B685A1E7B681A6053
:1003D0007B685B687A68D26811467A681269920015
:1003E0000A44043A934204D17B68DA687B685A6015
:1003F00004E07B685B681A1D7B685A60002318461E
:100400000C37BD4680BC704780B400AF044B1B78EE
:1004100083F00103DAB2024B1A7020BFF6E700BF87
:10042000C802002080B483B000AF0023FB710C4AE7
:100430000C4BC3F890210B4BD3F89031A3F54063DC
:10044000084AC2F89431074BD3F89431083B054A67
:10045000C2F89831FB7918460C37BD4680BC70470E
:10046000002800204000002080B582B000AF0023AB
:10047000FB71174B002283F8A821FFF7D3FF6422FA
:1004800014491548FFF71FFF0346002B02D0FB79E4
:100490000133FB71114A124B03CB106051601B7882
:1004A0001372104BFF221A710E4B0F4A9A600D4BBC
:1004B0004FF496721A600B4800F05AF803461A4639
:1004C000FB791344FB71FB7918460837BD4680BDA4
:1004D000400000200C030020B4020020E5020020B0
:1004E0004C130008CC0200200904000880B485B039
:1004F00000AF78600023FB727B68DB681A467B687C
:100500005A617B685B691A1F7B685A617B685B690B
:100510004FF080721A607B685B691A1F7B685A61B2
:100520007B689A687B685B691A607B685B691A1FE5
:100530007B685A617B685B696FF002021A60002376
:10054000FB600BE07B685B691A1F7B685A617B6804
:100550005B6900221A60FB680133FB60FB680C2BAF
:10056000F0DDFB7A18461437BD4680BC70470000AA
:1005700080B584B000AF78600023FB73164BD3F8CE
:1005800098217B68DA60144BD3F898217B681B684C
:10059000D21A7B681A617B681B69083B0E4AC2F855
:1005A00098317868FFF7A2FF0B4B93F89C311946FE
:1005B000094A7B6842F82130074B93F89C3101339C
:1005C000DAB2054B83F89C217B6800221A76FB7B0C
:1005D00018461037BD4680BD4000002080B485B06D
:1005E00000AF0023FB6032E00023BB6023E01E4A23
:1005F000BB6852F823301A79BB6801331A4951F8A5
:1006000023301B799A4213D9174ABB6852F823301A
:100610007B60BB680133144A52F823201249BB683F
:1006200041F82320BB6801330F497A6841F8232041
:10063000BB680133BB600C4B93F89C315A1EFB68BE
:10064000D31ABA689A42D2DBFB680133FB60064BCF
:1006500093F89C31013BFA689A42C5DB00BF14371E
:10066000BD4680BC704700BF4000002080B584B00C
:1006700000AFFFF7B3FF00233B6000BF3B461946C6
:100680003B48FFF784FE0346022BF7D100237B6033
:1006900042E0384A7B6852F82330FB607B680133C4
:1006A000344A52F82330BB60FB681B7E002B30D0ED
:1006B000BB681B7E002B11D12E4B93F89C31013B64
:1006C0002C4A52F82330BA689A4207D1F968284870
:1006D000FFF71BFEFB6801221A7624E0FB681A79FB
:1006E000BB681B799A4207D2F9682148FFF70DFED3
:1006F000FB6801221A7616E0FB681A79BB681B7941
:100700009A4206D1F9681A48FFF7FFFDFB680122FB
:100710001A767B6801337B60164B93F89C311A463E
:100720007B689342B5DB134B93F89C311A467B6888
:10073000934219D1FB681B7E012B15D0BB681B7E31
:10074000012B02D1BB68002B0ED10A4B93F89C31D0
:10075000013B084A52F82330FB60F9680448FFF770
:10076000D4FDFB6801221A7600BF1037BD4680BD5C
:10077000B40200204000002080B500AF214B1B6870
:10078000002B18D1204BD3F8A0311B7E002B12D0A8
:100790001D4BD3F8A03103221A761B4BD3F8A0319E
:1007A00019461848FFF7B1FD174BD3F8A031164A88
:1007B000C2F8A43124E015491248FFF7E8FD124BB6
:1007C000D3F8A43103221A760F4BD3F8A0311A794B
:1007D0000D4BD3F8A4311B799A4211D10A4BD3F8AF
:1007E000A0311B7E002B0BD0074BD3F8A03119464C
:1007F0000448FFF78AFD044BD3F8A03101221A7692
:1008000000BF80BDB402002040000020E4010020B1
:100810006F4BD3F8A031EFF3098002465A616C4B5D
:10082000D3F8A0315A69043A5A61694BD3F8A03120
:100830005B6922461A60664BD3F8A0315A69043AC4
:100840005A61634BD3F8A0315B692A461A60604B4A
:10085000D3F8A0315A69043A5A615D4BD3F8A031FC
:100860005B6932461A605A4BD3F8A0315A69043A90
:100870005A61574BD3F8A0315B693A461A60544B22
:10088000D3F8A0315A69043A5A61514BD3F8A031D8
:100890005B6942461A604E4BD3F8A0315A69043A5C
:1008A0005A614B4BD3F8A0315B694A461A60484BFA
:1008B000D3F8A0315A69043A5A61454BD3F8A031B4
:1008C0005B6952461A60424BD3F8A0315A69043A28
:1008D0005A613F4BD3F8A0315B695A461A603C4BD2
:1008E000D3F8A431002B09D0394BD3F8A431384ABE
:1008F000C2F8A031364B0022C3F8A421344BD3F800
:10090000A0315B691B689B46314BD3F8A0315A6913
:1009100004325A612E4BD3F8A0315B691B689A46AA
:100920002B4BD3F8A0315A6904325A61284BD3F8C3
:10093000A0315B691B689946254BD3F8A0315A69F1
:1009400004325A61224BD3F8A0315B691B68984688
:100950001F4BD3F8A0315A6904325A611C4BD3F8AB
:10096000A0315B691B681F46194BD3F8A0315A6947
:1009700004325A61164BD3F8A0315B691B681E46DE
:10098000134BD3F8A0315A6904325A61104BD3F893
:10099000A0315B691B681D460D4BD3F8A0315A6925
:1009A00004325A610A4BD3F8A0315B691B681C46BC
:1009B000074BD3F8A0315A6904325A61044BD3F87B
:1009C000A0315B69184680F30988704700BF18465C
:1009D0004000002080B584B000AF78607B68183399
:1009E0001B68023B1B78FB73FB7B042B27D801A2FF
:1009F00052F823F0090A0008090A0008370A00081B
:100A0000090A0008090A0008FFF730FE0E4B93F8A8
:100A1000A831012B12D10C4BD3F8A03119330B495B
:100A20001846FFF7A5FB0346002B07D0FFF7A4FEEF
:100A3000FFF70CFC02E0FFF719FE00E000BF00BF6B
:100A40001037BD4680BD00BF400000204C13000899
:100A500080B483B000AF0346FB71FB79042B15D83B
:100A600001A252F823F000BF7D0A0008810A0008A5
:100A7000850A0008890A00088B0A000800DF05E0E3
:100A800001DF03E002DF01E003DF04DF00BF1846FF
:100A90000C37BD4680BC704780B582B000AF78602F
:100AA0007B6802221A760020FFF7D2FF00BF0837CA
:100AB000BD4680BD80B582B000AF78607B68002203
:100AC0001A760120FFF7C4FF00BF0837BD4680BD7E
:100AD00080B500AF134B012283F8A821114B124AB5
:100AE000C3F8A0211048FFF7D7FFFFF7E4FB0D4B39
:100AF000D3F8A0315B69184680F30988EFF31480BE
:100B00004FF0020140EA010080F31488EFF31483F0
:100B100043F0010383F31488034B9B68984700BF9D
:100B200080BD00BF40000020CC02002080B582B014
:100B300000AF00237B602FE01D4A7B6852F8233012
:100B40001B7E002B25D11A4A7B6852F8233093F87C
:100B50003830002B1DD1164A7B6852F82330DA6BEF
:100B6000013ADA63124A7B6852F82330DB6B002BC0
:100B70000FD10F4A7B6852F82330012283F83820C6
:100B80000B4A7B6852F8233002221A760220FFF7C4
:100B90005FFF7B6801337B60054B93F89C311A46FD
:100BA0007B689342C8DB00BF0837BD4680BD00BFED
:100BB0004000002080B586B000AF786039607B6867
:100BC0001B68002B19D17B683A681A6000237B618F
:100BD0000FE0304A7B6952F82330002B06D12D49B3
:100BE0007B693A6841F8232000BF4FE07B690133FD
:100BF0007B617B69312BECDD48E000233B617B6846
:100C00005B68002B42D100233B6109E0214A3B692C
:100C100052F823303A689A4206D03B6901333B616F
:100C20003B69312BF2DD00E000BF3B69322B2DD157
:100C30007B683A685A603B6800221A767B6893F8B2
:100C40002630012B0AD17B681B681A797B6883F8F0
:100C500027207B681B683A6812791A710023FB60B1
:100C60000EE00C4AFB6852F82330002B05D10949ED
:100C7000FB683A6841F8232005E0FB680133FB601C
:100C8000FB68312BEDDD0320FFF7E2FE00BF1837D4
:100C9000BD4680BDEC01002080B584B000AF786017
:100CA00039607B681B68002B42D00023FB6011E099
:100CB000214AFB6852F82320204BD3F8A0319A42F6
:100CC00005D11D4AFB68002142F8231005E0FB68AE
:100CD0000133FB60FB68312BEADD7B681B683A68F7
:100CE0009A4225D17B6893F82630012B0AD17B6884
:100CF00093F827203B681A717B685B681A797B68D8
:100D000083F827207B685B68002B03D17B68002277
:100D10001A600DE07B685A687B681A607B68002265
:100D20005A607B681B6801221A760420FFF790FE48
:100D300000BF1037BD4680BDEC0100204000002000
:100D400080B500AF134B1B7883F00103DAB2114B6F
:100D50001A70114B1B6801330F4A13600E4B1B684E
:100D6000642B0BD10D490E48FFF724FF0D48FFF708
:100D700093FE0A490C48FFF71DFFE3E7064B1B688B
:100D8000C82BDFD1044B00221A6004490448FFF746
:100D900083FFD7E7460500201C00002088050020BF
:100DA000DC04002004050020C805002080B500AF49
:100DB0000F4B1B7883F00103DAB20D4B1A700D4B09
:100DC0001B6801330B4A13600A4B1B68642B03D169
:100DD0000948FFF761FEEBE7064B1B68C82BE7D11C
:100DE000044B00221A600548FFF764FEE0E700BFED
:100DF0004505002020000020480500209C0400201C
:100E000080B500AF0F4B1B7883F00103DAB20D4BB6
:100E10001A700D4B1B6801330B4A13600A4B1B6899
:100E2000642B03D10948FFF737FEEBE7064B1B683D
:100E3000C82BE7D1044B00221A600548FFF73AFEA1
:100E4000E0E700BF44050020240000200405002046
:100E50004805002080B500AF134B1B7883F00103D9
:100E6000DAB2114B1A70114B1B6801330F4A136031
:100E70000E4B1B68032B07D10D490E48FFF79AFE56
:100E80000B490D48FFF796FE084B1B68C82BE3D1B2
:100E9000064B00221A6006490748FFF7FDFE04488A
:100EA000FFF708FED8E700BFF0050020280000206B
:100EB00004050020C8050020DC04002080B500AF38
:100EC000FFF7F0F9FFF7D0FA384B394A92E8030000
:100ED00083E80300374B012283F82620364B374A3C
:100EE00092E8030083E80300354B012283F82620B3
:100EF000344B4FF480621A60324B334A9A60314B64
:100F000004221A712F4B00221A76304B304A106897
:100F1000186092889A802F4B4FF480621A602D4B94
:100F20002D4A9A602B4B03221A712A4B00221A7603
:100F30002A4B2B4A1068186092889A80294B4FF4EC
:100F400080621A60274B284A9A60264B02221A7147
:100F5000244B00221A76254B254A10681860928887
:100F60009A80244B4FF480621A60224B224A9A6086
:100F7000204B01221A711F4B00221A761F4B204A68
:100F80001068186092889A800E48FFF7F1FA1148AD
:100F9000FFF7EEFA1348FFF7EBFA1648FFF7E8FA07
:100FA0000848FFF779FDFFF793FDFEE7E404002012
:100FB00058130008DC040020D0050020601300084E
:100FC000C805002088050020410D0008A10500206B
:100FD000681300089C040020AD0D0008B504002033
:100FE0007013000848050020010E0008610500206C
:100FF0007813000804050020550E00081D05002088
:10100000801300080D488546AFF300800C480D4959
:101010000D4A002302E0D458C4500433C4188C4253
:10102000F9D30A4A0A4C002301E013600432A242B9
:10103000FBD300F05BF9FFF741FFFEE7002800203B
:101040000000002000000020901300080000002095
:1010500030060020FEE7000080B500AF054B5B695D
:10106000044A43F001035361034B1B68984700BFD8
:1010700080BD00BF00040140F405002080B500AF32
:10108000054B5B69044A43F002035361034B5B6801
:10109000984700BF80BD00BF00040140F405002058
:1010A00080B500AF054B5B69044A43F0040353610C
:1010B000034B9B68984700BF80BD00BF0004014000
:1010C000F405002080B500AF054B5B69044A43F08E
:1010D00008035361034BDB68984700BF80BD00BF26
:1010E00000040140F405002080B500AF054B5B69AA
:1010F000044A43F010035361034B1B69984700BF38
:1011000080BD00BF00040140F405002080B500AFA1
:10111000264B5B6903F02003002B08D0234B5B694F
:10112000224A43F020035361214B5B6998471F4BD0
:101130005B6903F04003002B08D01C4B5B691B4A22
:1011400043F0400353611A4B9B699847174B5B6907
:1011500003F08003002B08D0144B5B69134A43F063
:1011600080035361124BDB699847104B5B6903F4B2
:101170008073002B08D00D4B5B690C4A43F48073DD
:1011800053610B4B1B6A9847084B5B6903F4007370
:10119000002B08D0054B5B69044A43F4007353618C
:1011A000034B5B6A984700BF80BD00BF000401404D
:1011B000F405002080B500AF2D4B5B6903F480631C
:1011C000002B08D02A4B5B69294A43F480635361A2
:1011D000284B9B6A9847264B5B6903F40063002BFE
:1011E00008D0234B5B69224A43F400635361214BCF
:1011F000DB6A98471E4B5B6903F48053002B08D0D1
:101200001B4B5B691A4A43F480535361194B1B6BA8
:101210009847174B5B6903F40053002B08D0144B1D
:101220005B69134A43F400535361124B5B6B98475D
:101230000F4B5B6903F48043002B08D00C4B5B69B8
:101240000B4A43F4804353610A4B9B6B9847084B0E
:101250005B6903F40043002B08D0054B5B69044A2B
:1012600043F400435361034BDB6B984700BF80BDE1
:1012700000040140F405002080B582B000AF044BAB
:101280001B685B693879984700BF0837BD4680BD49
:101290002C00002080B582B000AF044B5B685B6916
:1012A0003879984700BF0837BD4680BD2C00002024
:1012B00080B500AF024B1B681B69984700BF80BD1B
:1012C0003400002080B500AF024B1B681B699847B3
:1012D00000BF80BD3400002080B500AF024B1B680A
:1012E0001B69984700BF80BD3400002070B5002501
:1012F0000C4E0D4CA41BA410A54209D100F01AF805
:1013000000250A4E0A4CA41BA410A54205D170BDAD
:1013100056F8253098470135EEE756F825309847BE
:101320000135F2E7881300088813000888130008C5
:101330008C130008F8B500BFF8BC08BC9E46704787
:0C134000F8B500BFF8BC08BC9E46704722
:10134C0069646C655461736B000000004D55544525
:10135C00585F31004D555445585F32007461736BC2
:10136C00310000007461736B320000007461736BA8
:0C137C00330000007461736B340000004B
:041388005501000803
:04138C003101000823
:0400000508001005DA
:00000001FF
