:020000040800F2
:1000000000280020ED0400083D05000871010008EB
:100010007D0100088901000895010008000000002A
:10002000000000000000000000000000BD0100080A
:100030003D05000800000000A10100083D05000882
:100040003D0500083D0500083D0500083D05000888
:100050003D0500083D05000841050008650500084C
:1000600089050008AD050008D10500083D05000818
:100070003D0500083D0500083D0500083D05000858
:100080003D0500083D0500083D0500083D05000848
:100090003D0500083D0500083D050008F505000880
:1000A0003D0500083D0500083D0500083D05000828
:1000B0003D0500083D0500083D0500083D05000818
:1000C0003D0500083D0500083D05000861070008E2
:1000D0007D07000899070008AD070008C107000860
:1000E0009D0600083D050008000000003D050008D1
:1000F0003D0500083D0500083D0500083D050008D8
:100100003D0500083D0500083D0500083D050008C7
:100110003D0500083D0500083D0500083D050008B7
:100120003D0500083D0500083D0500083D050008A7
:1001300010B5054C237833B9044B13B10448AFF321
:1001400000800123237010BD00000020000000008B
:100150001C08000808B5034B1BB103490348AFF363
:10016000008008BD00000000040000201C080008FA
:1001700080B400AF00BFBD4680BC704780B400AF04
:1001800000BFBD4680BC704780B400AF00BFBD4615
:1001900080BC704780B400AF00BFBD4680BC7047D4
:1001A00080B400AF044B5B68034A43F000635360C4
:1001B00000BFBD4680BC704700ED00E01EF0040F9C
:1001C0000CBFEFF30880EFF3098000F029B800BFFF
:1001D00080B400AF00BFBD4680BC704780B485B01E
:1001E00000AFF860B9607A60BB68002B01D10323CF
:1001F00011E0FB68BA68DA60FB68DA68FB685A608D
:10020000FB68DA68FB689A60FB687A681A61FB68C9
:1002100000221A60002318461437BD4680BC704780
:1002200080B485B000AF78607B6818331B68023BF0
:100230001B78FB73FB7B022B03D0032B03D0012B1A
:1002400002E000BF00E000BF00BF1437BD4680BC25
:10025000704780B400AF00BFFDE7000080B483B0FA
:1002600000AF0023FB710C4A0C4BC3F890210B4BE1
:10027000D3F89031A3F54063084AC2F89431074B94
:10028000D3F89431083B054AC2F89831FB791846F7
:100290000C37BD4680BC7047002800202800002095
:1002A00080B582B000AF0023FB71174B002283F8AA
:1002B000A821FFF7D3FF642214491548FFF78EFFEA
:1002C0000346002B02D0FB790133FB71114A124B1C
:1002D00003CB106051601B781372104BFF221A7110
:1002E0000E4B0F4A9A600D4B4FF496721A600B48F2
:1002F00000F05AF803461A46FB791344FB71FB7968
:1003000018460837BD4680BD28000020280200207E
:10031000D40100200102002034080008E801002078
:100320005302000880B485B000AF78600023FB72F0
:100330007B68DB681A467B685A617B685B691A1FB9
:100340007B685A617B685B694FF080721A607B68DA
:100350005B691A1F7B685A617B689A687B685B6976
:100360001A607B685B691A1F7B685A617B685B69EE
:100370006FF002021A600023FB600BE07B685B6990
:100380001A1F7B685A617B685B6900221A60FB68F0
:100390000133FB60FB680C2BF0DDFB7A1846143749
:1003A000BD4680BC7047000080B584B000AF786067
:1003B0000023FB73164BD3F898217B68DA60144B4B
:1003C000D3F898217B681B68D21A7B681A617B6816
:1003D0001B69083B0E4AC2F898317868FFF7A2FF04
:1003E0000B4B93F89C311946094A7B6842F821303F
:1003F000074B93F89C310133DAB2054B83F89C210B
:100400007B6800221A76FB7B18461037BD4680BDFC
:100410002800002080B400AFFEE780B400AFFEE704
:1004200080B400AFFEE7000080B500AFFFF7D0FE5C
:10043000FFF736FF214B4FF480621A601F4B204AB2
:100440009A601E4B03221A711C4B00221A761D4B18
:100450001D4A1068186092889A801848FFF7A4FF18
:100460001A4B4FF480621A60184B194A9A60174B66
:1004700004221A71154B00221A76164B164A106880
:10048000186092889A801148FFF78EFF134B4FF443
:1004900080621A60114B124A9A60104B05221A7141
:1004A0000E4B00221A760F4B0F4A10681860928884
:1004B0009A800A48FFF778FFFEE700BF3804002063
:1004C000150400085104002040080008B80300206B
:1004D0001B040008D103002048080008F80300208E
:1004E0002104000811040020500800080D4885462A
:1004F000AFF300800C480D490D4A002302E0D458A8
:10050000C4500433C4188C42F9D30A4A0A4C00235D
:1005100001E013600432A242FBD300F05BF9FFF765
:1005200083FFFEE7002800200000002000000020DC
:100530006008000800000020B4040020FEE700006E
:1005400080B500AF054B5B69044A43F0010353617A
:10055000034B1B68984700BF80BD00BF00040140EB
:100560007804002080B500AF054B5B69044A43F076
:1005700002035361034B5B68984700BF80BD00BF17
:10058000000401407804002080B500AF054B5B6992
:10059000044A43F004035361034B9B68984700BF30
:1005A00080BD00BF000401407804002080B500AF8A
:1005B000054B5B69044A43F008035361034BDB6856
:1005C000984700BF80BD00BF0004014078040020B0
:1005D00080B500AF054B5B69044A43F010035361DB
:1005E000034B1B69984700BF80BD00BF000401405A
:1005F0007804002080B500AF264B5B6903F0200330
:10060000002B08D0234B5B69224A43F0200353613F
:10061000214B5B6998471F4B5B6903F04003002B3C
:1006200008D01C4B5B691B4A43F0400353611A4BD3
:100630009B699847174B5B6903F08003002B08D038
:10064000144B5B69134A43F080035361124BDB691F
:100650009847104B5B6903F48073002B08D00D4B57
:100660005B690C4A43F4807353610B4B1B6A9847D8
:10067000084B5B6903F40073002B08D0054B5B69E2
:10068000044A43F400735361034B5B6A984700BF0D
:1006900080BD00BF000401407804002080B500AF99
:1006A0002D4B5B6903F48063002B08D02A4B5B69F8
:1006B000294A43F480635361284B9B6A9847264B31
:1006C0005B6903F40063002B08D0234B5B69224A6B
:1006D00043F400635361214BDB6A98471E4B5B690F
:1006E00003F48053002B08D01B4B5B691A4A43F478
:1006F00080535361194B1B6B9847174B5B6903F48D
:100700000053002B08D0144B5B69134A43F4005389
:100710005361124B5B6B98470F4B5B6903F480434B
:10072000002B08D00C4B5B690B4A43F480435361A8
:100730000A4B9B6B9847084B5B6903F40043002B03
:1007400008D0054B5B69044A43F400435361034BF3
:10075000DB6B984700BF80BD000401407804002097
:1007600080B582B000AF044B1B685B69387998474D
:1007700000BF0837BD4680BD1C00002080B582B098
:1007800000AF044B5B685B693879984700BF083756
:10079000BD4680BD1C00002080B500AF024B1B6829
:1007A0001B69984700BF80BD2400002080B500AFC2
:1007B000024B1B681B69984700BF80BD24000020C6
:1007C00080B500AF024B1B681B69984700BF80BD16
:1007D0002400002070B500250C4E0D4CA41BA41065
:1007E000A54209D100F01AF800250A4E0A4CA41BB4
:1007F000A410A54205D170BD56F8253098470135A3
:10080000EEE756F8253098470135F2E7580800081A
:1008100058080008580800085C080008F8B500BF30
:10082000F8BC08BC9E467047F8B500BFF8BC08BCD1
:040830009E46704729
:1008340069646C655461736B000000007461736BD0
:10084400310000007461736B320000007461736BDB
:04085400330000006D
:04085800550100083E
:04085C00310100085E
:04000005080004EDFE
:00000001FF
