:020000040800F2
:1000000000280020950B0008E50B00081D020008E1
:100010002902000835020008410200080000000023
:100020000000000000000000000000008D02000839
:10003000E50B000800000000B10700086902000895
:10004000E50B0008E50B0008E50B0008E50B0008D0
:10005000E50B0008E50B0008E90B00080D0C000893
:10006000310C0008550C0008790C0008E50B00085D
:10007000E50B0008E50B0008E50B0008E50B0008A0
:10008000E50B0008E50B0008E50B0008E50B000890
:10009000E50B0008E50B0008E50B00089D0C0008C7
:1000A000E50B0008E50B0008E50B0008E50B000870
:1000B000E50B0008E50B0008E50B0008E50B000860
:1000C000E50B0008E50B0008E50B0008090E000829
:1000D000250E0008410E0008550E0008690E0008A4
:1000E000450D0008E50B000800000000E50B0008C6
:1000F000E50B0008E50B0008E50B0008E50B000820
:10010000E50B0008E50B0008E50B0008E50B00080F
:10011000E50B0008E50B0008E50B0008E50B0008FF
:10012000E50B0008E50B0008E50B0008E50B0008EF
:1001300010B5054C237833B9044B13B10448AFF321
:1001400000800123237010BD00000020000000008B
:10015000C40E000808B5034B1BB103490348AFF3B5
:10016000008008BD0000000004000020C40E00084C
:1001700010F8012B11F8013B012A28BF9A42F7D051
:10018000D01A704780B483B000AF03463960FB805B
:10019000B7F90630002B0ADB3B68DAB20C49B7F935
:1001A00006305201D2B20B4483F800230AE03B68C8
:1001B000DAB20849FB8803F00F03043B5201D2B2C4
:1001C0000B441A7600BF0C37BD4680BC704700BF99
:1001D00000E100E000ED00E080B582B000AF7860A3
:1001E0007B68013BB3F1807F01D301230FE00A4A12
:1001F0007B68013B536007214FF0FF30FFF7C2FFE0
:10020000054B00229A60044B07221A60002318460F
:100210000837BD4680BD00BF10E000E080B400AFED
:1002200000BFBD4680BC704780B400AF00BFBD4674
:1002300080BC704780B400AF00BFBD4680BC704733
:1002400080B400AF00BFBD4680BC704780B400AF33
:10025000044B5B68034A43F08053536000BFBD46C4
:1002600080BC704700ED00E080B500AF064B1B7806
:1002700083F00103DAB2044B1A7000F051FAFFF771
:10028000E5FF00BF80BD00BF280000201EF0040F66
:100290000CBFEFF30880EFF3098000F067BB00BFED
:1002A00080B500AF0F216FF00100FFF76BFF00BFBB
:1002B00080BD80B500AF4FF4FA50FFF78DFF00BF4F
:1002C00080BD80B485B000AFF860B9607A60BB686B
:1002D000002B01D1032311E0FB68BA68DA60FB68E8
:1002E000DA68FB685A60FB68DA68FB689A60FB684A
:1002F0007A681A61FB6800221A60002318461437D6
:10030000BD4680BC704780B483B000AF7860396070
:100310007B68DB68002B03D07B681B69002B01D155
:1003200003232DE07B685A687B689B689A4207D15B
:100330007B681A687B681B699A4201D101231FE020
:100340007B689B683A681A607B681B685A1C7B68EC
:100350001A607B689B687A68D26811467A6812696D
:1003600092000A44043A934204D17B68DA687B68BD
:100370009A6004E07B689B681A1D7B689A60002382
:1003800018460C37BD4680BC704780B483B000AFC0
:10039000786039607B68DB68002B03D07B681B6961
:1003A000002B01D1032328E07B685A687B689B6897
:1003B0009A4201D1022320E07B685B681A683B689F
:1003C0001A607B681B685A1E7B681A607B685B68D2
:1003D0007A68D26811467A68126992000A44043A2F
:1003E000934204D17B68DA687B685A6004E07B68DA
:1003F0005B681A1D7B685A60002318460C37BD469F
:1004000080BC704780B400AF044B1B7883F00103BD
:10041000DAB2024B1A7000BFF6E700BFEC01002011
:1004200080B483B000AF0023FB710C4A0C4BC3F8BF
:1004300090210B4BD3F89031A3F54063084AC2F8E2
:100440009431074BD3F89431083B054AC2F89831F0
:10045000FB7918460C37BD4680BC70470028002049
:100460002C00002080B582B000AF0023FB71174B39
:10047000002283F8A821FFF7D3FF6422144915480E
:10048000FFF71FFF0346002B02D0FB790133FB71FE
:10049000114A124B03CB106051601B781372104B42
:1004A000FF221A710E4B0F4A9A600D4B4FF4967251
:1004B0001A600B4800F05AF803461A46FB791344B9
:1004C000FB71FB7918460837BD4680BD2C00002023
:1004D00030020020D801002009020020DC0E0008B4
:1004E000F00100200504000880B485B000AF7860FA
:1004F0000023FB727B68DB681A467B685A617B6865
:100500005B691A1F7B685A617B685B694FF0807278
:100510001A607B685B691A1F7B685A617B689A68FE
:100520007B685B691A607B685B691A1F7B685A612C
:100530007B685B696FF002021A600023FB600BE0CE
:100540007B685B691A1F7B685A617B685B69002264
:100550001A60FB680133FB60FB680C2BF0DDFB7A53
:1005600018461437BD4680BC7047000080B584B083
:1005700000AF78600023FB73164BD3F898217B689B
:10058000DA60144BD3F898217B681B68D21A7B6819
:100590001A617B681B69083B0E4AC2F8983178687B
:1005A000FFF7A2FF0B4B93F89C311946094A7B6871
:1005B00042F82130074B93F89C310133DAB2054BF6
:1005C00083F89C217B6800221A76FB7B1846103743
:1005D000BD4680BD2C00002080B485B000AF002354
:1005E000FB6032E00023BB6023E01E4ABB6852F888
:1005F00023301A79BB6801331A4951F823301B792B
:100600009A4213D9174ABB6852F823307B60BB6803
:100610000133144A52F823201249BB6841F82320C1
:10062000BB6801330F497A6841F82320BB68013366
:10063000BB600C4B93F89C315A1EFB68D31ABA6806
:100640009A42D2DBFB680133FB60064B93F89C3186
:10065000013BFA689A42C5DB00BF1437BD4680BC37
:10066000704700BF2C00002080B584B000AFFFF7BA
:10067000B3FF00233B6000BF3B4619462648FFF707
:1006800084FE0346022BF7D10023FB6038E0234AA7
:10069000FB6852F82330BB60FB6801331F4A52F8F5
:1006A00023307B60BB681B7E002B26D07B681B7EC3
:1006B000002B07D1B9681848FFF725FEBB68012257
:1006C0001A7624E0BB681A797B681B799A4207D2B4
:1006D000B9681148FFF717FEBB6801221A7616E0C9
:1006E000BB681A797B681B799A4206D1B9680A48B7
:1006F000FFF709FEBB6801221A76FB680133FB6035
:10070000064B93F89C311A46FB689342BFDB00BF4F
:100710001037BD4680BD00BFD80100202C0000204E
:1007200080B500AF1F4B1B68002B18D11E4BD3F8B0
:10073000A0311B7E002B12D01B4BD3F8A03103221B
:100740001A76194BD3F8A03119461648FFF7DBFD8E
:10075000154BD3F8A031144AC2F8A4311FE0134955
:100760001048FFF712FE104BD3F8A0311A790E4B48
:10077000D3F8A4311B799A4211D10B4BD3F8A03195
:100780001B7E002B0BD0084BD3F8A031194605482F
:10079000FFF7B9FD044BD3F8A03101221A7600BF50
:1007A00080BD00BFD80100202C000020D001002017
:1007B0006D4BD3F8A031EFF3098002465A616A4BC2
:1007C000D3F8A0315A69043A5A61674BD3F8A03183
:1007D0005B6922461A60644BD3F8A0315A69043A27
:1007E0005A61614BD3F8A0315B692A461A605E4BAF
:1007F000D3F8A0315A69043A5A615B4BD3F8A0315F
:100800005B6932461A60584BD3F8A0315A69043AF2
:100810005A61554BD3F8A0315B693A461A60524B86
:10082000D3F8A0315A69043A5A614F4BD3F8A0313A
:100830005B6942461A604C4BD3F8A0315A69043ABE
:100840005A61494BD3F8A0315B694A461A60464B5E
:10085000D3F8A0315A69043A5A61434BD3F8A03116
:100860005B6952461A60404BD3F8A0315A69043A8A
:100870005A613D4BD3F8A0315B695A461A603A4B36
:10088000D3F8A431384AC2F8A031374B0022C3F85C
:10089000A421354BD3F8A0315B691B689B46324BD2
:1008A000D3F8A0315A6904325A612F4BD3F8A031E2
:1008B0005B691B689A462C4BD3F8A0315A69043205
:1008C0005A61294BD3F8A0315B691B689946264BC6
:1008D000D3F8A0315A6904325A61234BD3F8A031BE
:1008E0005B691B689846204BD3F8A0315A690432E3
:1008F0005A611D4BD3F8A0315B691B681F461A4B28
:10090000D3F8A0315A6904325A61174BD3F8A03199
:100910005B691B681E46144BD3F8A0315A69043238
:100920005A61114BD3F8A0315B691B681D460E4B11
:10093000D3F8A0315A6904325A610B4BD3F8A03175
:100940005B691B681C46084BD3F8A0315A69043216
:100950005A61054BD3F8A0315B69184680F30988CA
:10096000704700BF184600BF2C00002080B584B03F
:1009700000AF78607B6818331B68023B1B78FB7301
:10098000FB7B002B1ADB012B01DD022B16E0FFF7AE
:100990006BFE0C4B93F8A831012B0ED1094BD3F809
:1009A000A031193308491846FFF7E2FB0346002B34
:1009B00003D0FFF7B5FEFFF749FC00BF00BF1037BB
:1009C000BD4680BD2C000020DC0E000880B483B042
:1009D00000AF0346FB71FB79012B05D0022B05D03C
:1009E000002B05D100DF03E001DF01E002DF00BFE3
:1009F00000BF18460C37BD4680BC704780B582B03A
:100A000000AF78607B6802221A760020FFF7DEFFD5
:100A100000BF0837BD4680BD80B500AF134B012233
:100A200083F8A821114B124AC3F8A0211048FFF700
:100A3000E5FFFFF73EFC0D4BD3F8A0315B6918468C
:100A400080F30988EFF314804FF0020140EA0100BF
:100A500080F31488EFF3148343F0010383F31488C5
:100A6000034B9B68984700BF80BD00BF2C0000204F
:100A7000F001002080B400AF034B1B7883F001032A
:100A8000DAB2014B1A70F7E74204002080B400AFDD
:100A9000034B1B7883F00103DAB2014B1A70F7E7BE
:100AA0004104002080B400AF034B1B7883F00103A6
:100AB000DAB2014B1A70F7E74004002080B500AFAE
:100AC000FFF7EEFBFFF7CEFC264B4FF400721A60E7
:100AD000244B254A9A60234B03221A71214B002292
:100AE0001A76224B224A1068186092889A80214B0D
:100AF0004FF400721A601F4B1F4A9A601D4B03226D
:100B00001A711C4B00221A761C4B1D4A1068186083
:100B100092889A801B4B4FF400721A60194B1A4A44
:100B20009A60184B03221A71164B00221A76174B43
:100B3000174A1068186092889A800A48FFF716FDD5
:100B40000C48FFF713FD0F48FFF710FD0548FFF7AE
:100B500055FF0848FFF752FF0A48FFF74FFFFFF71E
:100B60005BFFFEE784040020750A00089D04002056
:100B7000E80E0008C00300208D0A0008D9030020F9
:100B8000F00E000844040020A50A00085D040020BF
:100B9000F80E00080D488546AFF300800C480D495B
:100BA0000D4A002302E0D458C4500433C4188C42C8
:100BB000F9D30A4A0A4C002301E013600432A2422E
:100BC000FBD300F05BF9FFF779FFFEE70028002078
:100BD0000000002000000020080F00080000002096
:100BE00004050020FEE7000080B500AF054B5B69FF
:100BF000044A43F001035361034B1B68984700BF4D
:100C000080BD00BF00040140C804002080B500AFD3
:100C1000054B5B69044A43F002035361034B5B6875
:100C2000984700BF80BD00BF00040140C8040020F9
:100C300080B500AF054B5B69044A43F00403536180
:100C4000034B9B68984700BF80BD00BF0004014074
:100C5000C804002080B500AF054B5B69044A43F02F
:100C600008035361034BDB68984700BF80BD00BF9A
:100C700000040140C804002080B500AF054B5B694B
:100C8000044A43F010035361034B1B69984700BFAC
:100C900080BD00BF00040140C804002080B500AF43
:100CA000264B5B6903F02003002B08D0234B5B69C4
:100CB000224A43F020035361214B5B6998471F4B45
:100CC0005B6903F04003002B08D01C4B5B691B4A97
:100CD00043F0400353611A4B9B699847174B5B697C
:100CE00003F08003002B08D0144B5B69134A43F0D8
:100CF00080035361124BDB699847104B5B6903F427
:100D00008073002B08D00D4B5B690C4A43F4807351
:100D100053610B4B1B6A9847084B5B6903F40073E4
:100D2000002B08D0054B5B69044A43F40073536100
:100D3000034B5B6A984700BF80BD00BF00040140C1
:100D4000C804002080B500AF2D4B5B6903F48063BD
:100D5000002B08D02A4B5B69294A43F48063536116
:100D6000284B9B6A9847264B5B6903F40063002B72
:100D700008D0234B5B69224A43F400635361214B43
:100D8000DB6A98471E4B5B6903F48053002B08D045
:100D90001B4B5B691A4A43F480535361194B1B6B1D
:100DA0009847174B5B6903F40053002B08D0144B92
:100DB0005B69134A43F400535361124B5B6B9847D2
:100DC0000F4B5B6903F48043002B08D00C4B5B692D
:100DD0000B4A43F4804353610A4B9B6B9847084B83
:100DE0005B6903F40043002B08D0054B5B69044AA0
:100DF00043F400435361034BDB6B984700BF80BD56
:100E000000040140C804002080B582B000AF044B4C
:100E10001B685B693879984700BF0837BD4680BDBD
:100E20001C00002080B582B000AF044B5B685B699A
:100E30003879984700BF0837BD4680BD1C000020A8
:100E400080B500AF024B1B681B69984700BF80BD8F
:100E50002400002080B500AF024B1B681B69984737
:100E600000BF80BD2400002080B500AF024B1B688E
:100E70001B69984700BF80BD2400002070B5002585
:100E80000C4E0D4CA41BA410A54209D100F01AF879
:100E900000250A4E0A4CA41BA410A54205D170BD22
:100EA00056F8253098470135EEE756F82530984733
:100EB0000135F2E7000F0008000F0008000F0008DE
:100EC000040F0008F8B500BFF8BC08BC9E46704788
:0C0ED000F8B500BFF8BC08BC9E46704797
:100EDC0069646C655461736B000000007461736B22
:100EEC00310000007461736B320000007461736B2D
:040EFC0033000000BF
:040F0000550100088F
:040F040031010008AF
:0400000508000B954F
:00000001FF
