:020000040800F2
:10000000002800202D0D00087D0D00081D020008AD
:100010002902000835020008410200080000000023
:100020000000000000000000000000009102000835
:100030007D0D000800000000B507000869020008F7
:100040007D0D00087D0D00087D0D00087D0D000868
:100050007D0D00087D0D0008810D0008A50D00082C
:10006000C90D0008ED0D0008110E00087D0D0008F7
:100070007D0D00087D0D00087D0D00087D0D000838
:100080007D0D00087D0D00087D0D00087D0D000828
:100090007D0D00087D0D00087D0D0008350E00085F
:1000A0007D0D00087D0D00087D0D00087D0D000808
:1000B0007D0D00087D0D00087D0D00087D0D0008F8
:1000C0007D0D00087D0D00087D0D0008A10F0008C2
:1000D000BD0F0008D90F0008ED0F0008011000083F
:1000E000DD0E00087D0D0008000000007D0D0008F9
:1000F0007D0D00087D0D00087D0D00087D0D0008B8
:100100007D0D00087D0D00087D0D00087D0D0008A7
:100110007D0D00087D0D00087D0D00087D0D000897
:100120007D0D00087D0D00087D0D00087D0D000887
:1001300010B5054C237833B9044B13B10448AFF321
:1001400000800123237010BD00000020000000008B
:100150005C10000808B5034B1BB103490348AFF31B
:10016000008008BD00000000040000205C100008B2
:1001700010F8012B11F8013B012A28BF9A42F7D051
:10018000D01A704780B483B000AF03463960FB805B
:10019000B7F90630002B0ADB3B68DAB20C49B7F935
:1001A00006305201D2B20B4483F800230AE03B68C8
:1001B000DAB20849FB8803F00F03043B5201D2B2C4
:1001C0000B441A7600BF0C37BD4680BC704700BF99
:1001D00000E100E000ED00E080B582B000AF7860A3
:1001E0007B68013BB3F1807F01D301230FE00A4A12
:1001F0007B68013B536007214FF0FF30FFF7C2FFE0
:10020000054B00229A60044B07221A60002318460F
:100210000837BD4680BD00BF10E000E080B400AFED
:1002200000BFBD4680BC704780B400AF00BFBD4674
:1002300080BC704780B400AF00BFBD4680BC704733
:1002400080B400AF00BFBD4680BC704780B400AF33
:10025000044B5B68034A43F08053536000BFBD46C4
:1002600080BC704700ED00E080B500AF074B1B7805
:1002700083F00103DAB2054B1A7000F039FC00F08C
:1002800051FAFFF7E3FF00BF80BD00BF2800002048
:100290001EF0040F0CBFEFF30880EFF3098000F0AD
:1002A0007BBB00BF80B500AF0F216FF00100FFF7EF
:1002B00069FF00BF80BD80B500AF4FF4FA50FFF773
:1002C0008BFF00BF80BD80B485B000AFF860B9601F
:1002D0007A60BB68002B01D1032311E0FB68BA6888
:1002E000DA60FB68DA68FB685A60FB68DA68FB680A
:1002F0009A60FB687A681A61FB6800221A60002322
:1003000018461437BD4680BC704780B483B000AF38
:10031000786039607B68DB68002B03D07B681B69E1
:10032000002B01D103232DE07B685A687B689B6812
:100330009A4207D17B681A687B681B699A4201D18F
:1003400001231FE07B689B683A681A607B681B6822
:100350005A1C7B681A607B689B687A68D268114671
:100360007A68126992000A44043A934204D17B6885
:10037000DA687B689A6004E07B689B681A1D7B687A
:100380009A60002318460C37BD4680BC704780B485
:1003900083B000AF786039607B68DB68002B03D0E6
:1003A0007B681B69002B01D1032328E07B685A6816
:1003B0007B689B689A4201D1022320E07B685B68DE
:1003C0001A683B681A607B681B685A1E7B681A6053
:1003D0007B685B687A68D26811467A681269920015
:1003E0000A44043A934204D17B68DA687B685A6015
:1003F00004E07B685B681A1D7B685A60002318461E
:100400000C37BD4680BC704780B400AF044B1B78EE
:1004100083F00103DAB2024B1A7020BFF6E700BF87
:10042000EC01002080B483B000AF0023FB710C4AC4
:100430000C4BC3F890210B4BD3F89031A3F54063DC
:10044000084AC2F89431074BD3F89431083B054A67
:10045000C2F89831FB7918460C37BD4680BC70470E
:10046000002800202C00002080B582B000AF0023BF
:10047000FB71174B002283F8A821FFF7D3FF6422FA
:1004800014491548FFF71FFF0346002B02D0FB79E4
:100490000133FB71114A124B03CB106051601B7882
:1004A0001372104BFF221A710E4B0F4A9A600D4BBC
:1004B0004FF496721A600B4800F05AF803461A4639
:1004C000FB791344FB71FB7918460837BD4680BDA4
:1004D0002C00002030020020D8010020090200205A
:1004E00074100008F00100200904000880B485B0F1
:1004F00000AF78600023FB727B68DB681A467B687C
:100500005A617B685B691A1F7B685A617B685B690B
:100510004FF080721A607B685B691A1F7B685A61B2
:100520007B689A687B685B691A607B685B691A1FE5
:100530007B685A617B685B696FF002021A60002376
:10054000FB600BE07B685B691A1F7B685A617B6804
:100550005B6900221A60FB680133FB60FB680C2BAF
:10056000F0DDFB7A18461437BD4680BC70470000AA
:1005700080B584B000AF78600023FB73164BD3F8CE
:1005800098217B68DA60144BD3F898217B681B684C
:10059000D21A7B681A617B681B69083B0E4AC2F855
:1005A00098317868FFF7A2FF0B4B93F89C311946FE
:1005B000094A7B6842F82130074B93F89C3101339C
:1005C000DAB2054B83F89C217B6800221A76FB7B0C
:1005D00018461037BD4680BD2C00002080B485B081
:1005E00000AF0023FB6032E00023BB6023E01E4A23
:1005F000BB6852F823301A79BB6801331A4951F8A5
:1006000023301B799A4213D9174ABB6852F823301A
:100610007B60BB680133144A52F823201249BB683F
:1006200041F82320BB6801330F497A6841F8232041
:10063000BB680133BB600C4B93F89C315A1EFB68BE
:10064000D31ABA689A42D2DBFB680133FB60064BCF
:1006500093F89C31013BFA689A42C5DB00BF14371E
:10066000BD4680BC704700BF2C00002080B584B020
:1006700000AFFFF7B3FF00233B6000BF3B461946C6
:100680002648FFF784FE0346022BF7D10023FB60C8
:1006900038E0234AFB6852F82330BB60FB68013323
:1006A0001F4A52F823307B60BB681B7E002B26D08C
:1006B0007B681B7E002B07D1B9681848FFF725FE21
:1006C000BB6801221A7624E0BB681A797B681B7923
:1006D0009A4207D2B9681148FFF717FEBB6801229A
:1006E0001A7616E0BB681A797B681B799A4206D1A4
:1006F000B9680A48FFF709FEBB6801221A76FB6851
:100700000133FB60064B93F89C311A46FB68934219
:10071000BFDB00BF1037BD4680BD00BFD801002041
:100720002C00002080B500AF1F4B1B68002B18D198
:100730001E4BD3F8A0311B7E002B12D01B4BD3F8DD
:10074000A03103221A76194BD3F8A0311946164866
:10075000FFF7DBFD154BD3F8A031144AC2F8A431E2
:100760001FE013491048FFF712FE104BD3F8A031D9
:100770001A790E4BD3F8A4311B799A4211D10B4B45
:10078000D3F8A0311B7E002B0BD0084BD3F8A0313F
:1007900019460548FFF7B9FD044BD3F8A0310122F3
:1007A0001A7600BF80BD00BFD80100202C000020B9
:1007B000D0010020774BD3F8A031EFF30980024637
:1007C0005A61744BD3F8A0315A69043A5A61714B9B
:1007D000D3F8A0315B6922461A606E4BD3F8A03182
:1007E0005A69043A5A616B4BD3F8A0315B692A46C7
:1007F0001A60684BD3F8A0315A69043A5A61654BC4
:10080000D3F8A0315B6932461A60624BD3F8A0314D
:100810005A69043A5A615F4BD3F8A0315B693A4692
:100820001A605C4BD3F8A0315A69043A5A61594BAB
:10083000D3F8A0315B6942461A60564BD3F8A03119
:100840005A69043A5A61534BD3F8A0315B694A465E
:100850001A60504BD3F8A0315A69043A5A614D4B93
:10086000D3F8A0315B6952461A604A4BD3F8A031E5
:100870005A69043A5A61474BD3F8A0315B695A462A
:100880001A60444BD3F8A431002B0ED1414B93F89E
:100890009C31013B3F4A52F823303E4AC2F8A03116
:1008A0003C4B0022C3F8A42109E03A4BD3F8A43111
:1008B000384AC2F8A031374B0022C3F8A421354B87
:1008C000D3F8A0315B691B689B46324BD3F8A0314B
:1008D0005A6904325A612F4BD3F8A0315B691B6807
:1008E0009A462C4BD3F8A0315A6904325A61294BED
:1008F000D3F8A0315B691B689946264BD3F8A03129
:100900005A6904325A61234BD3F8A0315B691B68E2
:100910009846204BD3F8A0315A6904325A611D4BD6
:10092000D3F8A0315B691B681F461A4BD3F8A0317E
:100930005A6904325A61174BD3F8A0315B691B68BE
:100940001E46144BD3F8A0315A6904325A61114B38
:10095000D3F8A0315B691B681D460E4BD3F8A0315C
:100960005A6904325A610B4BD3F8A0315B691B689A
:100970001C46084BD3F8A0315A6904325A61054B22
:10098000D3F8A0315B69184680F30988704700BF2F
:10099000184600BF2C00002080B584B000AF7860FE
:1009A0007B6818331B68023B1B78FB73FB7B002BB7
:1009B0001FDB012B02DD022B17D01AE0FFF756FEDA
:1009C0000E4B93F8A831012B12D10C4BD3F8A03168
:1009D00019330B491846FFF7CBFB0346002B07D012
:1009E000FFF7A0FEFFF732FC02E0FFF73FFE00E05A
:1009F00000BF00BF1037BD4680BD00BF2C000020E7
:100A00007410000880B483B000AF0346FB71FB791B
:100A1000012B05D0022B05D0002B05D100DF03E010
:100A200001DF01E002DF00BF00BF18460C37BD4602
:100A300080BC704780B582B000AF78607B680222CE
:100A40001A760020FFF7DEFF00BF0837BD4680BDE5
:100A500080B582B000AF78607B6800221A760120F2
:100A6000FFF7D0FF00BF0837BD4680BD80B500AF9F
:100A7000134B012283F8A821114B124AC3F8A0217D
:100A80001048FFF7D7FFFFF716FC0D4BD3F8A03146
:100A90005B69184680F30988EFF314804FF0020178
:100AA00040EA010080F31488EFF3148343F001035C
:100AB00083F31488034B9B68984700BF80BD00BF39
:100AC0002C000020F001002080B582B000AF7860DB
:100AD00039603B68002283F838203B687A68DA6323
:100AE0003868FFF7B5FF00BF0837BD4680BD00007E
:100AF00080B582B000AF00237B602FE01D4A7B6889
:100B000052F823301B7E002B25D11A4A7B6852F8FD
:100B1000233093F83830002B1DD1164A7B6852F8E9
:100B20002330DA6B013ADA63124A7B6852F82330D9
:100B3000DB6B002B0FD10F4A7B6852F82330012268
:100B400083F838200B4A7B6852F8233002221A7649
:100B50000220FFF757FF7B6801337B60054B93F85A
:100B60009C311A467B689342C8DB00BF0837BD46FC
:100B700080BD00BF2C00002080B500AF054B1B7866
:100B800083F00103DAB2034B1A7003496420FFF7C4
:100B90009BFFF3E7420400208404002080B500AFEF
:100BA000054B1B7883F00103DAB2034B1A7003493B
:100BB0006420FFF789FFF3E741040020C003002011
:100BC00080B500AF064B1B7883F00103DAB2044B0B
:100BD0001A7004494FF4FA70FFF776FFF2E700BF8E
:100BE000400400204404002080B500AF064B1B7871
:100BF00083F00103DAB2044B1A7004494FF47A709F
:100C0000FFF762FFF2E700BFC404002000040020E9
:100C100080B500AFFFF746FBFFF726FC334B4FF4E0
:100C200080621A60314B324A9A60304B03221A714B
:100C30002E4B00221A762F4B2F4A1068186092888C
:100C40009A802E4B4FF480621A602C4B2C4A9A608B
:100C50002A4B03221A71294B00221A76294B2A4A61
:100C60001068186092889A80284B4FF480621A604E
:100C7000264B274A9A60254B03221A71234B0022E8
:100C80001A76244B244A1068186092889A80234B65
:100C90004FF480621A60214B214A9A601F4B012257
:100CA0001A711E4B00221A761E4B1F4A10681860DC
:100CB00092889A800D48FFF75BFC1048FFF758FCBC
:100CC0001248FFF755FC1548FFF752FC0748FFF79D
:100CD000B1FE0A48FFF7AEFE0C48FFF7ABFE0F4827
:100CE000FFF7A8FEFFF7C2FEFEE700BF8404002066
:100CF000790B00089D04002080100008C00300202C
:100D00009D0B0008D903002088100008440400202F
:100D1000C10B00085D0400209010000800040020B2
:100D2000E90B000819040020981000080D488546BA
:100D3000AFF300800C480D490D4A002302E0D4585F
:100D4000C4500433C4188C42F9D30A4A0A4C002315
:100D500001E013600432A242FBD300F05BF9FFF71D
:100D600057FFFEE7002800200000002000000020C0
:100D7000A81000080000002004050020FEE7000085
:100D800080B500AF054B5B69044A43F00103536132
:100D9000034B1B68984700BF80BD00BF00040140A3
:100DA000C804002080B500AF054B5B69044A43F0DE
:100DB00002035361034B5B68984700BF80BD00BFCF
:100DC00000040140C804002080B500AF054B5B69FA
:100DD000044A43F004035361034B9B68984700BFE8
:100DE00080BD00BF00040140C804002080B500AFF2
:100DF000054B5B69044A43F008035361034BDB680E
:100E0000984700BF80BD00BF00040140C804002017
:100E100080B500AF054B5B69044A43F01003536192
:100E2000034B1B69984700BF80BD00BF0004014011
:100E3000C804002080B500AF264B5B6903F0200397
:100E4000002B08D0234B5B69224A43F020035361F7
:100E5000214B5B6998471F4B5B6903F04003002BF4
:100E600008D01C4B5B691B4A43F0400353611A4B8B
:100E70009B699847174B5B6903F08003002B08D0F0
:100E8000144B5B69134A43F080035361124BDB69D7
:100E90009847104B5B6903F48073002B08D00D4B0F
:100EA0005B690C4A43F4807353610B4B1B6A984790
:100EB000084B5B6903F40073002B08D0054B5B699A
:100EC000044A43F400735361034B5B6A984700BFC5
:100ED00080BD00BF00040140C804002080B500AF01
:100EE0002D4B5B6903F48063002B08D02A4B5B69B0
:100EF000294A43F480635361284B9B6A9847264BE9
:100F00005B6903F40063002B08D0234B5B69224A22
:100F100043F400635361214BDB6A98471E4B5B69C6
:100F200003F48053002B08D01B4B5B691A4A43F42F
:100F300080535361194B1B6B9847174B5B6903F444
:100F40000053002B08D0144B5B69134A43F4005341
:100F50005361124B5B6B98470F4B5B6903F4804303
:100F6000002B08D00C4B5B690B4A43F48043536160
:100F70000A4B9B6B9847084B5B6903F40043002BBB
:100F800008D0054B5B69044A43F400435361034BAB
:100F9000DB6B984700BF80BD00040140C8040020FF
:100FA00080B582B000AF044B1B685B693879984705
:100FB00000BF0837BD4680BD1C00002080B582B050
:100FC00000AF044B5B685B693879984700BF08370E
:100FD000BD4680BD1C00002080B500AF024B1B68E1
:100FE0001B69984700BF80BD2400002080B500AF7A
:100FF000024B1B681B69984700BF80BD240000207E
:1010000080B500AF024B1B681B69984700BF80BDCD
:101010002400002070B500250C4E0D4CA41BA4101C
:10102000A54209D100F01AF800250A4E0A4CA41B6B
:10103000A410A54205D170BD56F82530984701355A
:10104000EEE756F8253098470135F2E7A010000882
:10105000A0100008A0100008A4100008F8B500BFF8
:10106000F8BC08BC9E467047F8B500BFF8BC08BC89
:041070009E467047E1
:1010740069646C655461736B000000007461736B88
:10108400310000007461736B320000007461736B93
:0C109400330000007461736B3400000036
:0410A00055010008EE
:0410A400310100080E
:0400000508000D2DB5
:00000001FF
